{
  "contractName": "SellingContract",
  "abi": [
    {
      "inputs": [],
      "payable": false,
      "stateMutability": "nonpayable",
      "type": "constructor"
    },
    {
      "anonymous": false,
      "inputs": [
        {
          "indexed": false,
          "internalType": "uint256",
          "name": "index",
          "type": "uint256"
        }
      ],
      "name": "ItemOwnerChanged",
      "type": "event"
    },
    {
      "anonymous": false,
      "inputs": [
        {
          "indexed": false,
          "internalType": "uint256",
          "name": "index",
          "type": "uint256"
        },
        {
          "indexed": false,
          "internalType": "uint256",
          "name": "price",
          "type": "uint256"
        },
        {
          "indexed": false,
          "internalType": "bool",
          "name": "forSale",
          "type": "bool"
        }
      ],
      "name": "PlotAvailabilityChanged",
      "type": "event"
    },
    {
      "anonymous": false,
      "inputs": [
        {
          "indexed": false,
          "internalType": "uint256",
          "name": "index",
          "type": "uint256"
        },
        {
          "indexed": false,
          "internalType": "uint256",
          "name": "price",
          "type": "uint256"
        }
      ],
      "name": "PlotPriceChanged",
      "type": "event"
    },
    {
      "anonymous": false,
      "inputs": [
        {
          "indexed": false,
          "internalType": "uint256",
          "name": "id",
          "type": "uint256"
        },
        {
          "indexed": false,
          "internalType": "enum SellingContract.State",
          "name": "state",
          "type": "uint8"
        }
      ],
      "name": "TransactionUpdated",
      "type": "event"
    },
    {
      "anonymous": false,
      "inputs": [
        {
          "indexed": false,
          "internalType": "uint256",
          "name": "user_id",
          "type": "uint256"
        },
        {
          "indexed": false,
          "internalType": "uint256",
          "name": "balance",
          "type": "uint256"
        }
      ],
      "name": "UserBalanceChanged",
      "type": "event"
    },
    {
      "anonymous": false,
      "inputs": [
        {
          "indexed": false,
          "internalType": "uint256",
          "name": "id",
          "type": "uint256"
        }
      ],
      "name": "UserRegistered",
      "type": "event"
    },
    {
      "constant": true,
      "inputs": [
        {
          "internalType": "address",
          "name": "",
          "type": "address"
        }
      ],
      "name": "address_to_uname",
      "outputs": [
        {
          "internalType": "bytes32",
          "name": "",
          "type": "bytes32"
        }
      ],
      "payable": false,
      "stateMutability": "view",
      "type": "function"
    },
    {
      "constant": true,
      "inputs": [
        {
          "internalType": "address",
          "name": "",
          "type": "address"
        }
      ],
      "name": "deposits",
      "outputs": [
        {
          "internalType": "uint256",
          "name": "",
          "type": "uint256"
        }
      ],
      "payable": false,
      "stateMutability": "view",
      "type": "function"
    },
    {
      "constant": true,
      "inputs": [
        {
          "internalType": "uint256",
          "name": "",
          "type": "uint256"
        }
      ],
      "name": "id_to_transac",
      "outputs": [
        {
          "internalType": "uint256",
          "name": "id",
          "type": "uint256"
        },
        {
          "internalType": "address",
          "name": "buyer",
          "type": "address"
        },
        {
          "internalType": "address",
          "name": "seller",
          "type": "address"
        },
        {
          "internalType": "uint256",
          "name": "item_id",
          "type": "uint256"
        },
        {
          "internalType": "enum SellingContract.State",
          "name": "curr_state",
          "type": "uint8"
        },
        {
          "internalType": "bytes32",
          "name": "datetime",
          "type": "bytes32"
        }
      ],
      "payable": false,
      "stateMutability": "view",
      "type": "function"
    },
    {
      "constant": true,
      "inputs": [
        {
          "internalType": "uint256",
          "name": "",
          "type": "uint256"
        }
      ],
      "name": "id_to_users",
      "outputs": [
        {
          "internalType": "uint256",
          "name": "id",
          "type": "uint256"
        },
        {
          "internalType": "address",
          "name": "acc",
          "type": "address"
        },
        {
          "internalType": "bytes32",
          "name": "uname",
          "type": "bytes32"
        },
        {
          "internalType": "uint256",
          "name": "balance",
          "type": "uint256"
        },
        {
          "internalType": "bytes32",
          "name": "image_path",
          "type": "bytes32"
        }
      ],
      "payable": false,
      "stateMutability": "view",
      "type": "function"
    },
    {
      "constant": true,
      "inputs": [],
      "name": "item_count",
      "outputs": [
        {
          "internalType": "uint256",
          "name": "",
          "type": "uint256"
        }
      ],
      "payable": false,
      "stateMutability": "view",
      "type": "function"
    },
    {
      "constant": true,
      "inputs": [
        {
          "internalType": "uint256",
          "name": "",
          "type": "uint256"
        }
      ],
      "name": "itemid_to_title",
      "outputs": [
        {
          "internalType": "bytes32",
          "name": "",
          "type": "bytes32"
        }
      ],
      "payable": false,
      "stateMutability": "view",
      "type": "function"
    },
    {
      "constant": true,
      "inputs": [
        {
          "internalType": "uint256",
          "name": "",
          "type": "uint256"
        }
      ],
      "name": "items",
      "outputs": [
        {
          "internalType": "uint256",
          "name": "id",
          "type": "uint256"
        },
        {
          "internalType": "address",
          "name": "owner",
          "type": "address"
        },
        {
          "internalType": "bytes32",
          "name": "title",
          "type": "bytes32"
        },
        {
          "internalType": "uint256",
          "name": "weight",
          "type": "uint256"
        },
        {
          "internalType": "uint256",
          "name": "price",
          "type": "uint256"
        },
        {
          "internalType": "enum SellingContract.ItemType",
          "name": "item_type",
          "type": "uint8"
        },
        {
          "internalType": "bytes32",
          "name": "image_path",
          "type": "bytes32"
        },
        {
          "internalType": "bool",
          "name": "forSale",
          "type": "bool"
        }
      ],
      "payable": false,
      "stateMutability": "view",
      "type": "function"
    },
    {
      "constant": true,
      "inputs": [],
      "name": "transac_count",
      "outputs": [
        {
          "internalType": "uint256",
          "name": "",
          "type": "uint256"
        }
      ],
      "payable": false,
      "stateMutability": "view",
      "type": "function"
    },
    {
      "constant": true,
      "inputs": [
        {
          "internalType": "bytes32",
          "name": "",
          "type": "bytes32"
        }
      ],
      "name": "uname_to_address",
      "outputs": [
        {
          "internalType": "address",
          "name": "",
          "type": "address"
        }
      ],
      "payable": false,
      "stateMutability": "view",
      "type": "function"
    },
    {
      "constant": true,
      "inputs": [],
      "name": "user_count",
      "outputs": [
        {
          "internalType": "uint256",
          "name": "",
          "type": "uint256"
        }
      ],
      "payable": false,
      "stateMutability": "view",
      "type": "function"
    },
    {
      "constant": true,
      "inputs": [
        {
          "internalType": "uint256",
          "name": "",
          "type": "uint256"
        },
        {
          "internalType": "uint256",
          "name": "",
          "type": "uint256"
        }
      ],
      "name": "user_items",
      "outputs": [
        {
          "internalType": "uint256",
          "name": "id",
          "type": "uint256"
        },
        {
          "internalType": "address",
          "name": "owner",
          "type": "address"
        },
        {
          "internalType": "bytes32",
          "name": "title",
          "type": "bytes32"
        },
        {
          "internalType": "uint256",
          "name": "weight",
          "type": "uint256"
        },
        {
          "internalType": "uint256",
          "name": "price",
          "type": "uint256"
        },
        {
          "internalType": "enum SellingContract.ItemType",
          "name": "item_type",
          "type": "uint8"
        },
        {
          "internalType": "bytes32",
          "name": "image_path",
          "type": "bytes32"
        },
        {
          "internalType": "bool",
          "name": "forSale",
          "type": "bool"
        }
      ],
      "payable": false,
      "stateMutability": "view",
      "type": "function"
    },
    {
      "constant": true,
      "inputs": [
        {
          "internalType": "uint256",
          "name": "",
          "type": "uint256"
        },
        {
          "internalType": "uint256",
          "name": "",
          "type": "uint256"
        }
      ],
      "name": "user_transactions",
      "outputs": [
        {
          "internalType": "uint256",
          "name": "id",
          "type": "uint256"
        },
        {
          "internalType": "address",
          "name": "buyer",
          "type": "address"
        },
        {
          "internalType": "address",
          "name": "seller",
          "type": "address"
        },
        {
          "internalType": "uint256",
          "name": "item_id",
          "type": "uint256"
        },
        {
          "internalType": "enum SellingContract.State",
          "name": "curr_state",
          "type": "uint8"
        },
        {
          "internalType": "bytes32",
          "name": "datetime",
          "type": "bytes32"
        }
      ],
      "payable": false,
      "stateMutability": "view",
      "type": "function"
    },
    {
      "constant": true,
      "inputs": [
        {
          "internalType": "address",
          "name": "",
          "type": "address"
        }
      ],
      "name": "users",
      "outputs": [
        {
          "internalType": "uint256",
          "name": "",
          "type": "uint256"
        }
      ],
      "payable": false,
      "stateMutability": "view",
      "type": "function"
    },
    {
      "constant": false,
      "inputs": [
        {
          "internalType": "bytes32",
          "name": "uname",
          "type": "bytes32"
        },
        {
          "internalType": "address",
          "name": "acc",
          "type": "address"
        },
        {
          "internalType": "uint256",
          "name": "bal",
          "type": "uint256"
        }
      ],
      "name": "signUp",
      "outputs": [],
      "payable": false,
      "stateMutability": "nonpayable",
      "type": "function"
    },
    {
      "constant": true,
      "inputs": [],
      "name": "logIn",
      "outputs": [
        {
          "internalType": "uint256",
          "name": "",
          "type": "uint256"
        }
      ],
      "payable": false,
      "stateMutability": "view",
      "type": "function"
    },
    {
      "constant": false,
      "inputs": [
        {
          "internalType": "uint256",
          "name": "user_id",
          "type": "uint256"
        },
        {
          "internalType": "address",
          "name": "owner",
          "type": "address"
        },
        {
          "internalType": "bytes32",
          "name": "title",
          "type": "bytes32"
        },
        {
          "internalType": "uint256",
          "name": "weight",
          "type": "uint256"
        },
        {
          "internalType": "uint256",
          "name": "price",
          "type": "uint256"
        },
        {
          "internalType": "enum SellingContract.ItemType",
          "name": "item_type",
          "type": "uint8"
        },
        {
          "internalType": "bytes32",
          "name": "image_path",
          "type": "bytes32"
        }
      ],
      "name": "addItem",
      "outputs": [],
      "payable": false,
      "stateMutability": "nonpayable",
      "type": "function"
    },
    {
      "constant": false,
      "inputs": [
        {
          "internalType": "uint256",
          "name": "user_id",
          "type": "uint256"
        },
        {
          "internalType": "uint256",
          "name": "id",
          "type": "uint256"
        },
        {
          "internalType": "bytes32",
          "name": "datetime",
          "type": "bytes32"
        }
      ],
      "name": "buyItem",
      "outputs": [],
      "payable": true,
      "stateMutability": "payable",
      "type": "function"
    },
    {
      "constant": true,
      "inputs": [
        {
          "internalType": "uint256",
          "name": "user_id",
          "type": "uint256"
        }
      ],
      "name": "getTransactions",
      "outputs": [
        {
          "components": [
            {
              "internalType": "uint256",
              "name": "id",
              "type": "uint256"
            },
            {
              "internalType": "address",
              "name": "buyer",
              "type": "address"
            },
            {
              "internalType": "address",
              "name": "seller",
              "type": "address"
            },
            {
              "internalType": "uint256",
              "name": "item_id",
              "type": "uint256"
            },
            {
              "internalType": "enum SellingContract.State",
              "name": "curr_state",
              "type": "uint8"
            },
            {
              "internalType": "bytes32",
              "name": "datetime",
              "type": "bytes32"
            }
          ],
          "internalType": "struct SellingContract.Transaction[]",
          "name": "",
          "type": "tuple[]"
        }
      ],
      "payable": false,
      "stateMutability": "view",
      "type": "function"
    },
    {
      "constant": true,
      "inputs": [
        {
          "internalType": "uint256",
          "name": "user_id",
          "type": "uint256"
        }
      ],
      "name": "getItemByUser",
      "outputs": [
        {
          "components": [
            {
              "internalType": "uint256",
              "name": "id",
              "type": "uint256"
            },
            {
              "internalType": "address",
              "name": "owner",
              "type": "address"
            },
            {
              "internalType": "bytes32",
              "name": "title",
              "type": "bytes32"
            },
            {
              "internalType": "uint256",
              "name": "weight",
              "type": "uint256"
            },
            {
              "internalType": "uint256",
              "name": "price",
              "type": "uint256"
            },
            {
              "internalType": "enum SellingContract.ItemType",
              "name": "item_type",
              "type": "uint8"
            },
            {
              "internalType": "bytes32",
              "name": "image_path",
              "type": "bytes32"
            },
            {
              "internalType": "bool",
              "name": "forSale",
              "type": "bool"
            }
          ],
          "internalType": "struct SellingContract.Item[]",
          "name": "",
          "type": "tuple[]"
        }
      ],
      "payable": false,
      "stateMutability": "view",
      "type": "function"
    },
    {
      "constant": false,
      "inputs": [
        {
          "internalType": "uint256",
          "name": "user_id",
          "type": "uint256"
        },
        {
          "internalType": "uint256",
          "name": "item_id",
          "type": "uint256"
        },
        {
          "internalType": "uint256",
          "name": "transac_id",
          "type": "uint256"
        }
      ],
      "name": "confirmItemDeal",
      "outputs": [],
      "payable": true,
      "stateMutability": "payable",
      "type": "function"
    }
  ],
  "bytecode": "0x608060405234801561001057600080fd5b50336000806101000a81548173ffffffffffffffffffffffffffffffffffffffff021916908373ffffffffffffffffffffffffffffffffffffffff1602179055506001600b819055506001600d819055506001600c8190555061225a806100786000396000f3fe60806040526004361061011f5760003560e01c806377357f50116100a0578063bfb231d211610064578063bfb231d21461042e578063d9f19da014610472578063de651c65146104af578063e7af3f77146104d8578063fc7e286d146105155761011f565b806377357f501461031557806381762b2a146103595780638cadda671461039b578063a87430ba146103c6578063bb805f69146104035761011f565b80634fe84243116100e75780634fe842431461021d5780635742177c1461025f5780636270e52a1461029c57806366885242146102b857806370be5faf146102f95761011f565b80630ae3b255146101245780630ff1b43b14610161578063377b47a31461019e57806337c8a3f6146101c95780634e0781a9146101f2575b600080fd5b34801561013057600080fd5b5061014b600480360361014691908101906119aa565b610552565b6040516101589190611e81565b60405180910390f35b34801561016d57600080fd5b5061018860048036036101839190810190611a22565b610585565b6040516101959190611e9c565b60405180910390f35b3480156101aa57600080fd5b506101b36106c8565b6040516101c09190611efb565b60405180910390f35b3480156101d557600080fd5b506101f060048036036101eb9190810190611a4b565b61070f565b005b3480156101fe57600080fd5b50610207610a19565b6040516102149190611efb565b60405180910390f35b34801561022957600080fd5b50610244600480360361023f9190810190611a22565b610a1f565b60405161025696959493929190611f16565b60405180910390f35b34801561026b57600080fd5b5061028660048036036102819190810190611a22565b610aa8565b6040516102939190611ebe565b60405180910390f35b6102b660048036036102b19190810190611b25565b610c11565b005b3480156102c457600080fd5b506102df60048036036102da9190810190611a22565b6112c4565b6040516102f0959493929190611f77565b60405180910390f35b610313600480360361030e9190810190611b74565b61131a565b005b34801561032157600080fd5b5061033c60048036036103379190810190611ae9565b61150b565b604051610350989796959493929190611fca565b60405180910390f35b34801561036557600080fd5b50610380600480360361037b9190810190611ae9565b6115a7565b60405161039296959493929190611f16565b60405180910390f35b3480156103a757600080fd5b506103b061164a565b6040516103bd9190611efb565b60405180910390f35b3480156103d257600080fd5b506103ed60048036036103e89190810190611981565b611650565b6040516103fa9190611efb565b60405180910390f35b34801561040f57600080fd5b50610418611668565b6040516104259190611efb565b60405180910390f35b34801561043a57600080fd5b5061045560048036036104509190810190611a22565b61166e565b604051610469989796959493929190611fca565b60405180910390f35b34801561047e57600080fd5b5061049960048036036104949190810190611981565b6116f0565b6040516104a69190611ee0565b60405180910390f35b3480156104bb57600080fd5b506104d660048036036104d191908101906119d3565b611708565b005b3480156104e457600080fd5b506104ff60048036036104fa9190810190611a22565b6118fd565b60405161050c9190611ee0565b60405180910390f35b34801561052157600080fd5b5061053c60048036036105379190810190611981565b611915565b6040516105499190611efb565b60405180910390f35b60086020528060005260406000206000915054906101000a900473ffffffffffffffffffffffffffffffffffffffff1681565b606060026000838152602001908152602001600020805480602002602001604051908101604052809291908181526020016000905b828210156106bd578382906000526020600020906008020160405180610100016040529081600082015481526020016001820160009054906101000a900473ffffffffffffffffffffffffffffffffffffffff1673ffffffffffffffffffffffffffffffffffffffff1673ffffffffffffffffffffffffffffffffffffffff1681526020016002820154815260200160038201548152602001600482015481526020016005820160009054906101000a900460ff16600381111561067a57fe5b600381111561068557fe5b8152602001600682015481526020016007820160009054906101000a900460ff161515151581525050815260200190600101906105ba565b505050509050919050565b6000600460003373ffffffffffffffffffffffffffffffffffffffff1673ffffffffffffffffffffffffffffffffffffffff16815260200190815260200160002054905090565b8573ffffffffffffffffffffffffffffffffffffffff163373ffffffffffffffffffffffffffffffffffffffff161461074757600080fd5b604051806101000160405280600b5481526020013373ffffffffffffffffffffffffffffffffffffffff16815260200186815260200185815260200184815260200183600381111561079557fe5b81526020018281526020016001151581525060016000600b5481526020019081526020016000206000820151816000015560208201518160010160006101000a81548173ffffffffffffffffffffffffffffffffffffffff021916908373ffffffffffffffffffffffffffffffffffffffff16021790555060408201518160020155606082015181600301556080820151816004015560a08201518160050160006101000a81548160ff0219169083600381111561084f57fe5b021790555060c0820151816006015560e08201518160070160006101000a81548160ff02191690831515021790555090505084600a6000600b5481526020019081526020016000208190555060026000888152602001908152602001600020604051806101000160405280600b5481526020013373ffffffffffffffffffffffffffffffffffffffff1681526020018781526020018681526020018581526020018460038111156108fc57fe5b815260200183815260200160011515815250908060018154018082558091505090600182039060005260206000209060080201600090919290919091506000820151816000015560208201518160010160006101000a81548173ffffffffffffffffffffffffffffffffffffffff021916908373ffffffffffffffffffffffffffffffffffffffff16021790555060408201518160020155606082015181600301556080820151816004015560a08201518160050160006101000a81548160ff021916908360038111156109cc57fe5b021790555060c0820151816006015560e08201518160070160006101000a81548160ff021916908315150217905550505050600b6000815480929190600101919050555050505050505050565b600c5481565b60076020528060005260406000206000915090508060000154908060010160009054906101000a900473ffffffffffffffffffffffffffffffffffffffff16908060020160009054906101000a900473ffffffffffffffffffffffffffffffffffffffff16908060030154908060040160009054906101000a900460ff16908060050154905086565b606060066000838152602001908152602001600020805480602002602001604051908101604052809291908181526020016000905b82821015610c0657838290600052602060002090600602016040518060c0016040529081600082015481526020016001820160009054906101000a900473ffffffffffffffffffffffffffffffffffffffff1673ffffffffffffffffffffffffffffffffffffffff1673ffffffffffffffffffffffffffffffffffffffff1681526020016002820160009054906101000a900473ffffffffffffffffffffffffffffffffffffffff1673ffffffffffffffffffffffffffffffffffffffff1673ffffffffffffffffffffffffffffffffffffffff168152602001600382015481526020016004820160009054906101000a900460ff166002811115610bde57fe5b6002811115610be957fe5b815260200160058201548152505081526020019060010190610add565b505050509050919050565b60006001600084815260200190815260200160002090508060010160009054906101000a900473ffffffffffffffffffffffffffffffffffffffff1673ffffffffffffffffffffffffffffffffffffffff163373ffffffffffffffffffffffffffffffffffffffff1614158015610ca1575080600401546005600086815260200190815260200160002060030154115b610caa57600080fd5b8060040154600360003373ffffffffffffffffffffffffffffffffffffffff1673ffffffffffffffffffffffffffffffffffffffff1681526020019081526020016000206000828254019250508190555080600401546005600086815260200190815260200160002060030160008282540392505081905550600660008581526020019081526020016000206040518060c00160405280600c5481526020013373ffffffffffffffffffffffffffffffffffffffff1681526020018360010160009054906101000a900473ffffffffffffffffffffffffffffffffffffffff1673ffffffffffffffffffffffffffffffffffffffff16815260200185815260200160016002811115610db857fe5b815260200184815250908060018154018082558091505090600182039060005260206000209060060201600090919290919091506000820151816000015560208201518160010160006101000a81548173ffffffffffffffffffffffffffffffffffffffff021916908373ffffffffffffffffffffffffffffffffffffffff16021790555060408201518160020160006101000a81548173ffffffffffffffffffffffffffffffffffffffff021916908373ffffffffffffffffffffffffffffffffffffffff1602179055506060820151816003015560808201518160040160006101000a81548160ff02191690836002811115610eb257fe5b021790555060a0820151816005015550505060066000600460008460010160009054906101000a900473ffffffffffffffffffffffffffffffffffffffff1673ffffffffffffffffffffffffffffffffffffffff1673ffffffffffffffffffffffffffffffffffffffff1681526020019081526020016000205481526020019081526020016000206040518060c00160405280600c5481526020013373ffffffffffffffffffffffffffffffffffffffff1681526020018360010160009054906101000a900473ffffffffffffffffffffffffffffffffffffffff1673ffffffffffffffffffffffffffffffffffffffff16815260200185815260200160016002811115610fbc57fe5b815260200184815250908060018154018082558091505090600182039060005260206000209060060201600090919290919091506000820151816000015560208201518160010160006101000a81548173ffffffffffffffffffffffffffffffffffffffff021916908373ffffffffffffffffffffffffffffffffffffffff16021790555060408201518160020160006101000a81548173ffffffffffffffffffffffffffffffffffffffff021916908373ffffffffffffffffffffffffffffffffffffffff1602179055506060820151816003015560808201518160040160006101000a81548160ff021916908360028111156110b657fe5b021790555060a082015181600501555050506040518060c00160405280600c5481526020013373ffffffffffffffffffffffffffffffffffffffff1681526020018260010160009054906101000a900473ffffffffffffffffffffffffffffffffffffffff1673ffffffffffffffffffffffffffffffffffffffff1681526020018481526020016001600281111561114a57fe5b81526020018381525060076000600c5481526020019081526020016000206000820151816000015560208201518160010160006101000a81548173ffffffffffffffffffffffffffffffffffffffff021916908373ffffffffffffffffffffffffffffffffffffffff16021790555060408201518160020160006101000a81548173ffffffffffffffffffffffffffffffffffffffff021916908373ffffffffffffffffffffffffffffffffffffffff1602179055506060820151816003015560808201518160040160006101000a81548160ff0219169083600281111561122e57fe5b021790555060a0820151816005015590505060008160070160006101000a81548160ff021916908315150217905550600c600081548092919060010191905055507f2004784110f57bafdf02a2b6159280c110150214ef620956816d4bdddd90a7008460056000878152602001908152602001600020600301546040516112b6929190612071565b60405180910390a150505050565b60056020528060005260406000206000915090508060000154908060010160009054906101000a900473ffffffffffffffffffffffffffffffffffffffff16908060020154908060030154908060040154905085565b60006001600084815260200190815260200160002090506000600760008481526020019081526020016000209050338260010160006101000a81548173ffffffffffffffffffffffffffffffffffffffff021916908373ffffffffffffffffffffffffffffffffffffffff16021790555060028160040160006101000a81548160ff021916908360028111156113ac57fe5b02179055508160040154600360003373ffffffffffffffffffffffffffffffffffffffff1673ffffffffffffffffffffffffffffffffffffffff16815260200190815260200160002060008282540392505081905550600060056000600460008560020160009054906101000a900473ffffffffffffffffffffffffffffffffffffffff1673ffffffffffffffffffffffffffffffffffffffff1673ffffffffffffffffffffffffffffffffffffffff1681526020019081526020016000205481526020019081526020016000209050826004015481600301600082825401925050819055507f239238450aac0e661a8081bb53288d4cca061cb132f889aae7782dcd8d1390888460026040516114c4929190612048565b60405180910390a17f0d9cc272c105f63c63037256e3c86df72696be19b9d5c55d8081f701f50a6e67856040516114fb9190611efb565b60405180910390a1505050505050565b6002602052816000526040600020818154811061152457fe5b9060005260206000209060080201600091509150508060000154908060010160009054906101000a900473ffffffffffffffffffffffffffffffffffffffff16908060020154908060030154908060040154908060050160009054906101000a900460ff16908060060154908060070160009054906101000a900460ff16905088565b600660205281600052604060002081815481106115c057fe5b9060005260206000209060060201600091509150508060000154908060010160009054906101000a900473ffffffffffffffffffffffffffffffffffffffff16908060020160009054906101000a900473ffffffffffffffffffffffffffffffffffffffff16908060030154908060040160009054906101000a900460ff16908060050154905086565b600b5481565b60046020528060005260406000206000915090505481565b600d5481565b60016020528060005260406000206000915090508060000154908060010160009054906101000a900473ffffffffffffffffffffffffffffffffffffffff16908060020154908060030154908060040154908060050160009054906101000a900460ff16908060060154908060070160009054906101000a900460ff16905088565b60096020528060005260406000206000915090505481565b3373ffffffffffffffffffffffffffffffffffffffff168273ffffffffffffffffffffffffffffffffffffffff161461174057600080fd5b600d54600460008473ffffffffffffffffffffffffffffffffffffffff1673ffffffffffffffffffffffffffffffffffffffff16815260200190815260200160002081905550816008600085815260200190815260200160002060006101000a81548173ffffffffffffffffffffffffffffffffffffffff021916908373ffffffffffffffffffffffffffffffffffffffff1602179055506040518060a00160405280600d5481526020018373ffffffffffffffffffffffffffffffffffffffff168152602001848152602001828152602001600080191681525060056000600d5481526020019081526020016000206000820151816000015560208201518160010160006101000a81548173ffffffffffffffffffffffffffffffffffffffff021916908373ffffffffffffffffffffffffffffffffffffffff16021790555060408201518160020155606082015181600301556080820151816004015590505082600960008473ffffffffffffffffffffffffffffffffffffffff1673ffffffffffffffffffffffffffffffffffffffff16815260200190815260200160002081905550600d60008154809291906001019190505550505050565b600a6020528060005260406000206000915090505481565b60036020528060005260406000206000915090505481565b60008135905061193c816121c2565b92915050565b600081359050611951816121d9565b92915050565b600081359050611966816121f0565b92915050565b60008135905061197b81612200565b92915050565b60006020828403121561199357600080fd5b60006119a18482850161192d565b91505092915050565b6000602082840312156119bc57600080fd5b60006119ca84828501611942565b91505092915050565b6000806000606084860312156119e857600080fd5b60006119f686828701611942565b9350506020611a078682870161192d565b9250506040611a188682870161196c565b9150509250925092565b600060208284031215611a3457600080fd5b6000611a428482850161196c565b91505092915050565b600080600080600080600060e0888a031215611a6657600080fd5b6000611a748a828b0161196c565b9750506020611a858a828b0161192d565b9650506040611a968a828b01611942565b9550506060611aa78a828b0161196c565b9450506080611ab88a828b0161196c565b93505060a0611ac98a828b01611957565b92505060c0611ada8a828b01611942565b91505092959891949750929550565b60008060408385031215611afc57600080fd5b6000611b0a8582860161196c565b9250506020611b1b8582860161196c565b9150509250929050565b600080600060608486031215611b3a57600080fd5b6000611b488682870161196c565b9350506020611b598682870161196c565b9250506040611b6a86828701611942565b9150509250925092565b600080600060608486031215611b8957600080fd5b6000611b978682870161196c565b9350506020611ba88682870161196c565b9250506040611bb98682870161196c565b9150509250925092565b6000611bcf8383611d46565b6101008301905092915050565b6000611be88383611de8565b60c08301905092915050565b611bfd8161210c565b82525050565b611c0c8161210c565b82525050565b6000611c1d826120ba565b611c2781856120ea565b9350611c328361209a565b8060005b83811015611c63578151611c4a8882611bc3565b9750611c55836120d0565b925050600181019050611c36565b5085935050505092915050565b6000611c7b826120c5565b611c8581856120fb565b9350611c90836120aa565b8060005b83811015611cc1578151611ca88882611bdc565b9750611cb3836120dd565b925050600181019050611c94565b5085935050505092915050565b611cd78161211e565b82525050565b611ce68161211e565b82525050565b611cf58161212a565b82525050565b611d048161212a565b82525050565b611d1381612184565b82525050565b611d2281612184565b82525050565b611d3181612196565b82525050565b611d4081612196565b82525050565b61010082016000820151611d5d6000850182611e63565b506020820151611d706020850182611bf4565b506040820151611d836040850182611cec565b506060820151611d966060850182611e63565b506080820151611da96080850182611e63565b5060a0820151611dbc60a0850182611d0a565b5060c0820151611dcf60c0850182611cec565b5060e0820151611de260e0850182611cce565b50505050565b60c082016000820151611dfe6000850182611e63565b506020820151611e116020850182611bf4565b506040820151611e246040850182611bf4565b506060820151611e376060850182611e63565b506080820151611e4a6080850182611d28565b5060a0820151611e5d60a0850182611cec565b50505050565b611e6c8161217a565b82525050565b611e7b8161217a565b82525050565b6000602082019050611e966000830184611c03565b92915050565b60006020820190508181036000830152611eb68184611c12565b905092915050565b60006020820190508181036000830152611ed88184611c70565b905092915050565b6000602082019050611ef56000830184611cfb565b92915050565b6000602082019050611f106000830184611e72565b92915050565b600060c082019050611f2b6000830189611e72565b611f386020830188611c03565b611f456040830187611c03565b611f526060830186611e72565b611f5f6080830185611d37565b611f6c60a0830184611cfb565b979650505050505050565b600060a082019050611f8c6000830188611e72565b611f996020830187611c03565b611fa66040830186611cfb565b611fb36060830185611e72565b611fc06080830184611cfb565b9695505050505050565b600061010082019050611fe0600083018b611e72565b611fed602083018a611c03565b611ffa6040830189611cfb565b6120076060830188611e72565b6120146080830187611e72565b61202160a0830186611d19565b61202e60c0830185611cfb565b61203b60e0830184611cdd565b9998505050505050505050565b600060408201905061205d6000830185611e72565b61206a6020830184611d37565b9392505050565b60006040820190506120866000830185611e72565b6120936020830184611e72565b9392505050565b6000819050602082019050919050565b6000819050602082019050919050565b600081519050919050565b600081519050919050565b6000602082019050919050565b6000602082019050919050565b600082825260208201905092915050565b600082825260208201905092915050565b60006121178261215a565b9050919050565b60008115159050919050565b6000819050919050565b6000819050612142826121a8565b919050565b6000819050612155826121b5565b919050565b600073ffffffffffffffffffffffffffffffffffffffff82169050919050565b6000819050919050565b600061218f82612134565b9050919050565b60006121a182612147565b9050919050565b600481106121b257fe5b50565b600381106121bf57fe5b50565b6121cb8161210c565b81146121d657600080fd5b50565b6121e28161212a565b81146121ed57600080fd5b50565b600481106121fd57600080fd5b50565b6122098161217a565b811461221457600080fd5b5056fea365627a7a72315820ec20794164c84640e1349df153a1f678fc3d33a57b23172bd538ab2b902bbbe96c6578706572696d656e74616cf564736f6c634300050c0040",
  "source": "pragma solidity ^0.5.12;\npragma experimental ABIEncoderV2;\n\n\ncontract SellingContract {\n\n    address owner;\n\n    enum ItemType {PLASTIC, PAPER, METAL, GLASS}\n    enum State {AWAITING_PAYMENT, AWAITING_DELIVERY, COMPLETE}\n\n    struct Item {\n        uint id;\n        address owner;\n        bytes32 title;\n        uint weight;\n        uint price;\n        ItemType item_type;\n        bytes32 image_path;\n        bool forSale;\n\n    }\n\n    struct User {\n        uint id;\n        address acc;\n        bytes32 uname;\n        uint balance;\n        bytes32 image_path;\n    }\n\n    // this is added only when an user initiates a Transaction\n    struct Transaction {\n        uint id;\n        address buyer;\n        address seller;\n        uint item_id;\n        State curr_state;\n        bytes32 datetime; //added this\n    }\n\n    mapping (uint => Item) public items;\n    mapping (uint => Item[]) public user_items;\n    mapping (address => uint) public deposits; // for escrow\n    mapping (address => uint) public users;\n    mapping (uint => User) public id_to_users;\n    mapping (uint => Transaction[]) public user_transactions;\n    mapping (uint => Transaction) public id_to_transac;\n    mapping (bytes32 => address) public uname_to_address;\n    mapping (address => bytes32) public address_to_uname;\n    mapping (uint => bytes32) public itemid_to_title; //add this\n\n\n    uint public item_count;\n    uint public transac_count;\n    uint public user_count;\n\n    event ItemOwnerChanged(\n        uint index\n    );\n\n    event PlotPriceChanged(\n        uint index,\n        uint price\n    );\n\n    event PlotAvailabilityChanged(\n\n        uint index,\n        uint price,\n        bool forSale\n    );\n\n    event UserBalanceChanged(\n        uint user_id,\n        uint balance\n    );\n\n    event TransactionUpdated(\n        uint id,\n        State state\n    );\n\n    event UserRegistered(\n        uint id\n    );\n\n    uint id;\n    bool forSale;\n    uint weight;\n    uint price;\n    ItemType item_type;\n    bytes32 image_path;\n\n\n    constructor() public{\n        owner = msg.sender;\n        // for(uint i=0; i<12; i++){\n        //     items[i] = Item(id,owner,true,40,40,ItemType.PLASTIC, \"\");\n        // }\n        item_count = 1;\n        user_count = 1;\n        transac_count = 1;\n\n    }\n\n    function signUp(bytes32 uname, address acc, uint bal) public{\n        require(acc==msg.sender);\n        users[acc] = user_count;\n        uname_to_address[uname] = acc;\n        id_to_users[user_count] = User(user_count, acc, uname, bal, \"\");\n        address_to_uname[acc] = uname;\n        user_count++;\n        // emit UserRegistered(user_count-1);\n\n    }\n\n    function logIn() public view returns (uint) {\n        return users[msg.sender];\n    }\n\n    function addItem(uint user_id, address owner, bytes32 title, uint weight, uint price, ItemType item_type, bytes32 image_path) public {\n            require(msg.sender == owner);\n            items[item_count] = Item(item_count,msg.sender,title,weight,price,item_type,image_path,true);\n            itemid_to_title[item_count] = title;\n            user_items[user_id].push(Item(item_count,msg.sender,title,weight,price,item_type,image_path,true));\n            item_count++;\n\n        }\n\n        // function putItemUpForSale(uint id, uint price) public {\n        //     Item storage item = items[id];\n        //     require(msg.sender==item.owner && price > 0);\n        //     item.forSale = true;\n        //     item.price = price;\n        //     emit ItemAvailabilityChanged(id, price, true);\n\n        // }\n\n        function buyItem(uint user_id, uint id, bytes32 datetime) public payable {\n            Item storage item = items[id];\n            require(msg.sender != item.owner && id_to_users[user_id].balance > item.price);\n            deposits[msg.sender] += item.price;\n\n            id_to_users[user_id].balance -= item.price;\n            user_transactions[user_id].push(Transaction(transac_count,msg.sender, item.owner, id, State.AWAITING_DELIVERY,datetime));\n            user_transactions[users[item.owner]].push(Transaction(transac_count,msg.sender, item.owner, id, State.AWAITING_DELIVERY,datetime));\n            id_to_transac[transac_count] = Transaction(transac_count,msg.sender,item.owner,id,State.AWAITING_DELIVERY,datetime);\n            item.forSale = false;\n            transac_count++;\n\n            emit UserBalanceChanged(user_id,id_to_users[user_id].balance);\n        }\n\n        function getTransactions(uint user_id) public view returns (Transaction[] memory){\n            return user_transactions[user_id];\n        }\n\n        function getItemByUser(uint user_id) public view returns (Item[] memory){\n            return user_items[user_id];\n        }\n\n        function confirmItemDeal(uint user_id, uint item_id, uint transac_id) public payable{\n\n            // require(id_to_transac[transac_id].buyer == msg.sender && id_to_transac[transac_id].curr_state == State.AWAITING_DELIVERY);\n            Item storage item = items[item_id];\n            Transaction storage trans = id_to_transac[transac_id];\n            item.owner = msg.sender;\n            trans.curr_state = State.COMPLETE;\n            deposits[msg.sender] -= item.price;\n            // address payable seller = address(uint160(id_to_transac[transac_id].seller));\n            // seller.transfer(item.price);\n            User storage seller_user = id_to_users[users[trans.seller]];\n            seller_user.balance += item.price;\n\n            emit TransactionUpdated(transac_id,State.COMPLETE);\n            emit ItemOwnerChanged(item_id);\n        }\n\n    //\n    // function addPlot(uint user_id, bool forSale, uint price) public {\n    //     Plot memory plot = Plot(plot_count,msg.sender,forSale,price);\n    //     plots[plot_count] = plot;\n    //     plot_count++;\n    //     user_plots[user_id].push(plot);\n    // }\n\n    // function putPlotUpForSale(uint id, uint price) public {\n    //     Plot storage plot = plots[id];\n    //     require(msg.sender==plot.owner && price > 0);\n    //     plot.forSale = true;\n    //     plot.price = price;\n    //     emit PlotAvailabilityChanged(id, price, true);\n    //\n    // }\n    //\n    // function buyPlot(uint user_id, uint id) public payable {\n    //     Plot storage plot = plots[id];\n    //     require(msg.sender != plot.owner && plot.forSale && id_to_users[user_id].balance > plot.price);\n    //     deposits[msg.sender] += plot.price;\n    //     id_to_users[user_id].balance -= plot.price;\n    //     user_transactions[user_id].push(Transaction(transac_count,msg.sender, plot.owner, id, State.AWAITING_DELIVERY));\n    //     id_to_transac[transac_count] = Transaction(transac_count,msg.sender,plot.owner,id,State.AWAITING_DELIVERY);\n    //     plot.forSale = false;\n    //     transac_count++;\n    //     emit UserBalanceChanged(user_id,id_to_users[user_id].balance);\n    //\n    //\n    // }\n    //\n    // function getTransactions(uint user_id) public view returns (Transaction[] memory){\n    //     return user_transactions[user_id];\n    //\n    // }\n    //\n    // function getPlotByUser(uint user_id) public view returns (Plot[] memory){\n    //     return user_plots[user_id];\n    // }\n    //\n    // function confirmPlotDeal(uint user_id, uint plot_id, uint transac_id) public payable{\n    //\n    //     require(id_to_transac[transac_id].buyer == msg.sender && id_to_transac[transac_id].curr_state == State.AWAITING_DELIVERY);\n    //     Plot storage plot = plots[plot_id];\n    //     plot.owner = msg.sender;\n    //     id_to_transac[transac_id].curr_state = State.COMPLETE;\n    //     deposits[msg.sender] -= plot.price;\n    //     address payable seller = address(uint160(id_to_transac[transac_id].seller));\n    //     seller.transfer(plot.price);\n    //     id_to_users[users[seller]].balance += plot.price;\n    //     emit TransactionUpdated(transac_id,State.COMPLETE);\n    //     emit PlotOwnerChanged(plot_id);\n    // }\n\n\n}\n",
  "sourcePath": "/Users/ankitesh/Desktop/cs/Blockchain/wasteSelling/contracts/SellingContract.sol",
  "compiler": {
    "name": "solc",
    "version": "0.5.12+commit.7709ece9.Emscripten.clang"
  },
  "schemaVersion": "3.0.19",
  "updatedAt": "2020-01-12T10:38:17.052Z",
  "networkType": "ethereum",
  "devdoc": {
    "methods": {}
  },
  "userdoc": {
    "methods": {}
  }
}